:020000040800F2
:10000000180C0020D5000008C9120008AD0A00082D
:1000100000000000000000000000000000000000E0
:100020000000000000000000000000002919000886
:100030000000000000000000DF130008F11A0008B3
:10004000E7000008E7000008E7000008E7000008F4
:10005000E7000008E7000008E7000008E7000008E4
:10006000E7000008E7000008E7000008E7000008D4
:10007000E7000008E7000008E7000008E7000008C4
:10008000E7000008E700000800000000E7000008A3
:10009000E7000008E7000008E7000008E7000008A4
:1000A000E7000008E7000008E7000008591B000807
:1000B000E700000800000000E70000080000000062
:1000C0000348854600F044FA004800472D28000800
:1000D000180C00200448804704480047FEE7FEE76C
:1000E000FEE7FEE7FEE7FEE7F91A0008C100000898
:1000F00030B50B46014600202022012409E00D46C0
:10010000D5409D4205D31D469540491B2546954047
:1001100040191546521E002DF1DC30BD03460B433D
:100120009B0703D009E008C9121F08C0042AFAD2AD
:1001300003E00B780370401C491C521EF9D2704733
:10014000D2B201E00270401C491EFBD2704700226F
:10015000F6E710B513460A4604461946FFF7F0FFC6
:10016000204610BDF0B51FB40646002082B00546FB
:100170004024019100901BE0019922460F46304631
:1001800000F008FA049A059B801A994110D3104692
:100190001946224600F0EEF9361A8F4101972246A1
:1001A00001200021009F00F0E5F938184D41009032
:1001B0002046641E0028DFDC019B00982946324659
:1001C00007B0F0BDF0B507460846584087B0C00FED
:1001D000049048000E46590040084908BC1A88415E
:1001E00005D2384631461E4617460B460246580091
:1001F000400810434CD0300D039040055900400D8D
:10020000490D0590401A0290402872DA1803012126
:10021000000B09050843019004980092002805D0BE
:100220000199524200208841009201900298402199
:100230000A1A0199009800F09DF905460C466B4694
:1002400007CB00F0B8F9C0197141039A0E0D0023D5
:10025000D71756401A467A40164344D0049A002ACB
:100260002DD0029A012A039A15DC1205C01A914179
:1002700001263605001C7141D20F059ED20700935E
:10028000019202962A46234600F0B5F907B0F0BD68
:1002900038463146FAE71605224A0F46B218C01A08
:1002A000B74101210905001C4F4100187F4111464B
:1002B00018187941E20F10436D19644113E0E20709
:1002C0006D0815436408C2071443039A01261205FA
:1002D000C01A91413605001C7141CE0740083043D9
:1002E0004908C01851412A46234600F077F9CDE766
:1002F000FFE7049801224000C117121A00238B4126
:1003000004983146C417381AA141EEE730B40124ED
:10031000E407634030BC55E730B40124E407614092
:1003200030BC4FE70000E0FFF0B51FB488B00B9978
:100330000998002448400999C00F490049080991CB
:10034000C0070B990090490049080B91099908983A
:10035000A64608431CD00B990A98084318D0099860
:1003600001244000420D4800410D09982405000376
:10037000000B204309900B980003000B20430B90C7
:1003800050181C494018002201901446104605E000
:10039000002001460DB0F0BD032801DA034600E05D
:1003A00003239C46C11A0AAE0AE05F0008ADED5B6C
:1003B0004F00F75B7D430027AA187C41491C5B1E58
:1003C0006145F2DD410004AB5A522104120C0A438C
:1003D000240C401C0828DFDB01980290009970462D
:1003E00001910090059B049A0799069800F003F983
:1003F000D0E700000DFCFFFFF0B50C465C4085B077
:10040000E40FE40703944C00002664085900944666
:10041000490802460296224321D062460A431ED072
:100420006200570D4A000E032303550D01240246B6
:100430002C492405781B1B0B360B401823432643FD
:10044000614600901C46501AB44103D30098401CEA
:10045000009002E0921800985B41002803DA002027
:10046000014605B0F0BD002001210905074686467A
:1004700011E064461D46141BB54106D36546521B68
:10048000B341744607430C43A646CD0740084908CC
:10049000284392185B4105460D43EAD110461843A4
:1004A00013D06046194650407140084306D060465C
:1004B000101AB34106D20122002306E000220123D4
:1004C000DB0702E00122D243531000987446010575
:1004D000381C6141029C039D0019694100F07EF8BF
:1004E000BFE70000FD0300004A0009030123090BD8
:1004F0001B0519430A4B10B5520D9A4202DA00202F
:10050000014610BD064B34339A4203DC9A1A00F0C0
:1005100041F810BD034BD21800F02CF810BD0000BC
:10052000FF030000CDFBFFFF10B5002904DB012411
:10053000E40740428C412146002B04DB1C4601238A
:10054000DB075242A341994200D1904210BD000006
:10055000064C0125064E05E0E36807CC2B430C3C16
:1005600098471034B442F7D3FFF7AEFD002A0008D5
:10057000202A000810B5202A04DB0146203A9140C9
:10058000002010BD914020239C1A0346E3401943EC
:10059000904010BD10B5202A04DB0846203AD04018
:1005A000002110BD0B46D340D0402024A21A914018
:1005B0000843194610BD10B5202A06DBCB170846A4
:1005C000203A1041C1170B4306E00B461341D040BF
:1005D0002024A21A91400843194610BD10B5002BE3
:1005E00008DA0024401C614192185B411A4301D192
:1005F0004008400010BDF0B51FB482B005460C00A5
:1006000003D0084601F08AFC02E001F087FC2030AC
:100610000246009021462846FFF7ACFF049B059A4E
:1006200004460F4618431143084314D0184610439C
:100630001BD0009840210A1A18460599FFF7AAFF17
:1006400005460E46009A05990498FFF793FF084364
:1006500005D0012004E02046394607B0F0BD002057
:10066000C11705430E432C43374300990E98630589
:10067000401A7905E40A00220C43FD0A0A3002D52B
:1006800000200146E9E70105101969410C9C0D9D08
:1006900000196941FFF7A2FFDFE7000010B5084924
:1006A000C86A0A6B0649403109685040484005490C
:1006B0001422484004490860044800F06DFE10BD53
:1006C00080F7FF1FAC8616547400002000FC000861
:1006D00070B50C48C46A066B0A484030056814229D
:1006E00009490A4800F03EFE012807D10648744037
:1006F000074900686C404C40A04201D0002070BD0A
:10070000012070BD80F7FF1F7400002000FC00086E
:10071000AC86165430B504460020651803E02178F5
:10072000641C01F009FBAC42F9D3002101F004FB89
:10073000002101F001FB30BD10B50920C00600F01A
:1007400039F9054800F036F901200021400400F095
:10075000ABFE72B610BD00000008004801B500985D
:1007600001E0401E00900028FBD108BD03E00378A3
:100770000B70401C491C521EF9D201207047FEB577
:1007800007460420D21C019090080D4603260090D5
:1007900000F0C8F8342000F01FF8384600F03AF8AE
:1007A00000240DE0342000F017F83846296800F0E6
:1007B00093F80646042806D10198641C3F182D1DA5
:1007C00000988442EED300F069F8042E01D0002096
:1007D000FEBD0120FEBD00000149C8607047000059
:1007E0000020024070B5044600F09CF80125AD02DF
:1007F000074E07E0204600F00DF8042801D0002045
:1008000070BD6419B442F5D300F048F8012070BD02
:1008100000E80008F0B50B2706463F04384600F014
:1008200091F804280FD1084C206902252843206143
:1008300066612069402108432061384600F082F853
:100840002169A9432161F0BD00200240084904202C
:10085000CA68D20701D001207047CA68D20601D504
:1008600002207047C9684907FBD503207047000084
:100870000020024010B53520FFF7AEFF00F008F869
:10088000002803D000F018F8002010BD022010BD91
:1008900010B500F00BF8C008C00010BD0248016997
:1008A0008022114301617047002002400148006A24
:1008B000704700000020024004480169890503D404
:1008C00003498160034981607047000000200240B5
:1008D00023016745AB89EFCDF8B5064600200B270D
:1008E0003F0400900D46384600F02CF8042815D13E
:1008F0000B4C20690121084320613580384600F007
:1009000021F8042806D1B61C290C009631803846FF
:1009100000F018F82169490849002161F8BD00007C
:100920000020024004480169090603D503494160DB
:1009300003494160704700000020024023016745E1
:10094000AB89EFCD00B50346FFF780FF02E0FFF76C
:100950007DFF5B1E012803D0002B00D1052000BDC8
:10096000002BF4D1FAE7F7B582B0002490080F46C7
:1009700026460190FFF7D6FFA5000298795928185E
:10098000FFF7AAFF0090FFF789FF0098042805D021
:10099000761C322EEED9002005B0F0BD02987959B0
:1009A000405900268842F6D10198641C8442E1D364
:1009B0000120F1E7092110B5C906884202D10121C1
:1009C0004C0404E00F49884209D101210402204669
:1009D00000F06AFD0021204600F066FD10BD0A49C6
:1009E000884202D101210402F1E70849884202D17C
:1009F00001210C05EBE706498842EFD101218C0566
:100A0000E5E700000004004800080048000C00482A
:100A100000140048F0B50022032501230C68934020
:100A20001C409C422AD10C79012C01D0022C12D1FD
:100A3000876854002E46A640B74387604E79A6408B
:100A400084682643866084889C43848084888B796C
:100A500093401C438480066853002C469C40A64368
:100A600006600E7907689E403E430660C668A6434E
:100A7000C660CC799C40C3681C43C460521C102AD9
:100A8000CBD3F0BD4B07DB0E9A40C90810B58900E7
:100A90000818016A0F249C40A1430162016A1143B6
:100AA000016210BD0185704781617047FEE700005B
:100AB0000EB50AA007C86B4607C30BA001F01EFACB
:100AC000694615A001F01AFA1C491DA001F016FA9A
:100AD0001FA001F013FA01200EBD00004465632041
:100AE00020352032303136002F2A2A2A2A2A2A2A73
:100AF0002A2A2A2A2A2041626F757420626F6F7435
:100B00006C6F6164657221202A2A2A2A2A2A2A2ADD
:100B10002A2A2A2A2F0D0A002020202020202056B1
:100B2000524D3A30302E30312E30335F28427569C5
:100B30006C64202573290D0A000000007C00002051
:100B400020202020202020532F4E3A25730D0A000C
:100B50002F2A2A2A2A2A2A2A2A2A2A2A2A2A2A2AF0
:100B60002A2A2A2A2A2A2A2A2A2A2A2A2A2A2A2AE5
:100B70002A2A2A2A2A2A2A2A2A2A2A2A2F0D0A0037
:100B8000F8B501242FA001F0B9F9374D0027374EF1
:100B90002F600121684600F0F1FD012826D1694649
:100BA00008784006400E08700121684600F008FEF3
:100BB00069460878082810D00A280CD00D280AD0D9
:100BC0007F280AD029687054491C296007290DDB49
:100BD00024A001F093F900240AE025A001F08EF989
:100BE0002868401E286001D50F202860002CD0D135
:100BF000296820208C4205D2325D203A5F2A02D338
:100C00001CA019E03055641C072CF3D32049F77160
:100C10000020325C0B18401C1A720728F9D31422EA
:100C20001B491C4800F0B8FB002804D01AA001F0B2
:100C300065F90120F8BD1BA001F060F90020C04358
:100C4000F8BD0000506C6561736520656E74657257
:100C5000207468652073657269616C206E756D62C1
:100C600065723A200D0A0000100000206400002088
:100C7000200800004572723A20496C6C6567616C0F
:100C8000206368617261637465722E0D0A00000052
:100C90007400002000FC00085375636365737321C2
:100CA0002E0D0A004572723A2053617665207468F1
:100CB0006520706172616D6574657273206F662066
:100CC0006661696C7572652E0D0A000010B50449E5
:100CD0004868096881F308888047012010BD00003A
:100CE00000300008F8B50C206946087001216846FC
:100CF00000F066FD0121684600F062FD29A001F0C8
:100D0000FDF8FFF7C5FD002801D033A000E03AA0B0
:100D100001F0F4F844A001F0F1F8444E0025444CF1
:100D20001FE00121684600F029FD012819D169461C
:100D300008784006400E08700121684600F040FD2A
:100D400069460878082822D00A280ED00D280CD031
:100D50007F281CD021687054491C2160102900DBB9
:100D6000256060680028DCD1F8BD32A001F0C6F82B
:100D700000F08EF8002800D1656000203554401C3A
:100D80001028FBD328A0256001F0B8F8E9E72AA0D5
:100D900001F0B4F82068401E2060E2D50F202060EA
:100DA000DFE700002F2A2A2A2A2A2A2A2A2A2A2A80
:100DB0002A57656C636F6D6520746F204D532D73DA
:100DC00068656C6C212A2A2A2A2A2A2A2A2A2A2A8F
:100DD0002A2F0D0A0000000054686520666C6173BC
:100DE000682069732077726974652070726F74650A
:100DF000637465642E0D0A00506C65617365207024
:100E00007265737320277570646174652720746F31
:100E100020656E74657220746865207570677261F4
:100E200064652E0D0A0000004D533A006400002056
:100E3000100000200D0A000020080000F0B511A0ED
:100E400085B007C86B46002507C380262C466F4631
:100E5000012103A800F092FC0128F9D16846007B2B
:100E60000D280AD0395D891B814200D16D1C641C9C
:100E70000C2CEDD3002005B0F0BD0B2DFAD10120D4
:100E8000F9E70000F7E5E9E7E8E9EEE7B9B1B10015
:100E9000F0B560A003C88FB0009001915FA003C8B7
:100EA000029003915FA003C8049005915FA003C85E
:100EB000069007915FA003C8089009915FA003C83E
:100EC0000A900B915FA003C80C9060480D910068D8
:100ED000802400225E4D07460621401E00D50F20CB
:100EE0006B462E5C5B5C9E4200D0521C491E002962
:100EF000F3DC002A21D0002238460521401E00D50F
:100F00000F2002AB2E5C5B5C9E4200D0521C491E3F
:100F10000029F3DC002A14D00021052004AA7F1E3A
:100F200000D50F27EB5D165CB34200D0491C401E74
:100F30000028F4DC002907D008E000F0ABF80FB07F
:100F4000F0BDFFF7B5FDFAE700F050FD3F48002285
:100F5000006804210346401E00D50F2006AE2F5C1A
:100F6000765CB74200D0521C491E0029F3DC002AEF
:100F700038D0002218460521401E00D50F2008AEAB
:100F80002F5C765CB74200D0521C491E0029F3DC6E
:100F9000002A29D0002218460621401E00D50F2025
:100FA0000AAE765C2F5C361BB74200D0521C491E3D
:100FB0000029F2DC002A1AD0002105200CAA5B1EB1
:100FC00000D50F23175CEE5C3F1BBE4200D0491CCE
:100FD000401E0028F3DC002918D01EA000F08EFF70
:100FE0000120ACE720A0F9E7FFF770FEA7E7FFF7C5
:100FF00025FF012802D00020C043A0E7FFF74EFBE9
:10100000012801D01DA0E9E71FA0E7E7FFF7B8FD21
:1010100095E7000020757064617465002061626F5F
:10102000757400002072657365740000206C6F6138
:1010300064000000206578617070000000F2E5E750
:10104000E9F3F40000E5EEF4F3EE000010000020F8
:1010500064000020496E76616C696420636F6D6D79
:10106000616E642E0D0A0000496E7465725F4C6FEC
:10107000616441505028293F200D0A004661696C87
:101080007572652E0D0A0000537563636573732EC8
:101090000D0A0000F8B5FFF7FBFB002812D0FFF7A0
:1010A000E9FB002804D0012807D002280AD106E075
:1010B0001FA000F023FF264802E026A000E030A099
:1010C00000F01CFF37A000F019FF4548FFF746FB72
:1010D00000F06CFE051E1ADD424800F00FFF42A032
:1010E00000F00CFF434E0024305D002809D0371972
:1010F0003846012100F064FB0028F9D0641C802CE4
:10110000F2D329463CA000F0F9FE41A006E0681C9D
:1011100008D0A81C08D0ED1C08D046A000F0EEFEB8
:101120000120F8BD4BA0F9E75AA0F7E760A0F5E76A
:1011300057726974652050726F74656374696F6E5D
:101140002064697361626C65642E2E2E0D0A0000A6
:10115000682900084572726F723A20466C617368A4
:1011600020777269746520756E70726F7465637430
:10117000696F6E206661696C65642E2E2E0D0A0003
:10118000466C617368206D656D6F7279206E6F7447
:101190002077726974652070726F7465637465641A
:1011A0000D0A000057616974696E6720666F7220CE
:1011B0007468652066696C6520746F2062652073B1
:1011C000656E74202E2E2E20287072657373202772
:1011D000612720746F2061626F7274290A0D00000C
:1011E00040420F00B42900080D0A204E616D653A97
:1011F00020000000880000200A0D2053697A653A1B
:10120000202564202042797465730D0A00000000D7
:101210002D2D2D2D2D2D2D2D2D2D2D2D2D2D2D2DFE
:101220002D2D2D2D2D2D2D2D2D2D2D2D2D2D2D2DEE
:101230000D0A00000A0D4661696C656420746F2018
:1012400072656365697665207468652066696C659A
:10125000210A0D000A0A0D54686520696D616765F1
:101260002073697A652069732068696768657220F0
:101270007468616E2074686520616C6C6F7765645A
:10128000207370616365206D656D6F7279210A0D41
:10129000000000000A0A0D56657269666963617490
:1012A000696F6E206661696C6564210A0D0000003B
:1012B0000D0A0A41626F7274656420627920757349
:1012C00065722E0A0D0000007047000030B582786C
:1012D00001240178002A15D08B080E4A9B009A1829
:1012E00013688907C90EFF258D40AB434578AD07CC
:1012F0002D0E8D401D4315600078C006C00E844041
:10130000054804E0C806C00E8440034880300460ED
:1013100030BD000000E400E000E100E0034610B54D
:10132000AA20002204E01C78521C2018C0B25B1CCA
:101330008A42F8D310BD000010B5142206490748B0
:1013400000F010F8012805D0142205490248FEF7E4
:10135000E5FE012010BD00007400002000FC000824
:101360005429000870B50D46064614461146284615
:10137000FEF7EDFE224629463046FFF7F7F9611EDB
:101380002846FFF7CBFF29192039C97F884201D1B0
:10139000012070BD002070BDF8B50E46074614460A
:1013A000511E3046FFF7BAFF054630192038C57781
:1013B000224631463846FFF7E2F901280DD13819A7
:1013C00001226946401EFFF7D1F9012805D1684680
:1013D0000078854201D10120F8BD0020F8BD70479A
:1013E00010B50121480400F053F80121880400F0F1
:1013F0004FF800F0B3FC012010BD0121092210B507
:10140000C902D206002805D0012802D11046FFF7F4
:101410004BFB10BD1046FFF745FB10BD7CB501210D
:10142000480400F035F80121880400F031F8092162
:10143000CE0601223046FFF725FB01220A21304665
:10144000FFF720FB01204002009002216846017155
:1014500003214171002585710124C471694630461C
:10146000FFF7D8FAA002009069463046FFF7D2FA9B
:10147000E00200906846047145718471C471694648
:101480003046FFF7C7FA0020FFF7B7FF7CBD00002A
:10149000044A0029516901D0014300E081435161B0
:1014A0007047000000100240044A0029916A01D0F0
:1014B000014300E081439162704700000010024048
:1014C000044A0029116901D0014300E08143116100
:1014D0007047000000100240044A0029916901D0C1
:1014E000014300E081439161704700000010024019
:1014F000044A0029D16801D0014300E08143D16052
:101500007047000000100240F8B5354E0446706880
:101510000C21344D084005D0E1221204042803D0E8
:10152000082803D0256014E0226012E0716870681A
:10153000012389021B040F0F1840BF1C00281CD078
:10154000F06A0107090F1046491CFEF7D1FD7843E8
:1015500020607068244B0006000F1A5C206801466A
:10156000D140616072685205520F9A5CD140A1600F
:10157000326BD20505D41D4A09E01D484743276058
:10158000E7E77268520401D44A0800E08A08E26082
:10159000326B184B520603D4164A1232226100E015
:1015A0002361326BD20601D4656100E06061326B69
:1015B00092070FD0316B8907890F01290CD0306B4E
:1015C0008007800F022809D0306BC043800700D10C
:1015D000A561F8BDA161F8BDA061F8BDA361F8BD2A
:1015E0000010024000127A0000000020809FD50009
:1015F00000093D000080000010B5044C0021204689
:1016000000F0E9FA204600F0F1FA10BD0038014080
:10161000F0B50E464B2187B0144605460901FEF78A
:1016200067FD002966D1002D64D0E120400285428B
:1016300060D800950025002C04D0012C04D0022C89
:1016400058D104E0039505E00120800201E0032069
:1016500040020390072E02D0082E03D04AE0002C4F
:1016600006D147E0002C03D001200003019000E0E8
:101670000195214C214E00222146304600F0F9FA16
:101680001F4F00223946304600F0F3FAFFF7B4FF4F
:10169000FFF7C4FE01218803FFF71EFF0C20049012
:1016A000029569460595304600F0F8FA012130466A
:1016B00000F091FA1349012048701B216A46117607
:1016C0005076907606A8FFF701FE012221463046AB
:1016D00000F0CFFA01223946304600F0CAFA394606
:1016E000304600F073FA2146304600F06FFA0120D0
:1016F00007B0F0BD0020FBE70601060000380140FE
:1017000005010500440000200C4A0B4B1169585498
:10171000491C116190690023401C9061FF2900D988
:10172000136111695069814204D1401C5061FF2846
:1017300000D95361704700001407002044000020C6
:1017400070B50B4C0025A168E068884204D1257073
:101750000020FFF752FE70BD0649095C064800F004
:10176000E7FAE068401CE060FF28F4D9E56070BD4E
:10177000440000201406002000380140F0B50E4D52
:101780006B692A69D21A01D5FF320132914201D91F
:101790000020F0BD0022094E174608E06B69F45C9A
:1017A0005B1C84546B61FF2B00D96F61521C8A4211
:1017B000F4D30120F0BD00004400002014070020F5
:1017C000F8B5002912D0FF22013291420ED81A4CEE
:1017D000A368E268D21A002A01DCFF3201322378C2
:1017E0009C46012B00D1521E914201D90020F8BD28
:1017F0000022124D174608E0A368865CEE545B1C7D
:10180000A360FF2B00D9A760521C8A42F4D3604624
:1018100000280ED101202070FFF7EFFDE068295C61
:10182000074800F085FAE068401CE060FF2800D916
:10183000E7600120F8BD00004400002014060020ED
:101840000038014070B501240546240505E001215A
:101850002846FFF793FF012804D0641EF7D200202A
:10186000C04370BD002070BDF8B5044600260D468B
:1018700068460E60FFF7E6FF771E00284DD16846E8
:10188000007818281AD007DC2649012809D0022838
:1018900009D0042841D10EE041281AD061283CD15A
:1018A00017E0802201E0012292024A80207001208C
:1018B00008800E4617E020702E6031E06846FFF782
:1018C000C1FF002829D168460078182825D12F604B
:1018D00026E00120F8BD2018FFF7B4FF00281CD136
:1018E0003088401C308071883088491D8842F2D38E
:1018F000A0786178FF22504081420ED17188E01CAF
:10190000FEF708FFB080010AC2B270882318DC78A5
:101910008C4202D11979914201D03846F8BD286035
:101920000020F8BD20000020704731B501242405B7
:1019300005E001216846FFF743FF012804D0641E3B
:10194000F7D20020C04338BD002038BD3CB500238D
:101950002448009301930168012424042143016079
:10196000610005252D0302680A400192009A521C6D
:101970000092019A002A02D1009AAA42F3D101688A
:1019800089032CD501210191174A1021116041686A
:1019900041604168416041683F22120491434160C7
:1019A000416821434160C16A09090901C162C16AF4
:1019B00002221143C1620168D30519430160016825
:1019C0008901FCD54168890889004160416811435B
:1019D000416041680907890F0229FAD13CBD019392
:1019E0003CBD00000010024000200240BFF34F8FBA
:1019F00003490248C860BFF34F8FFEE70400FA05B1
:101A000000ED00E070B5002302781C46302A2DD18D
:101A10004278782A01D0582A28D18278002A23D007
:101A20000223C25C002A11D01546413D052D06D97E
:101A30001646613E052E02D93136092E38D82601C8
:101A40001446303C092C03D8224606E00C6018E00E
:101A5000052D01D8373A00E0573AB4185B1C0B2B20
:101A6000DFD301E00B2B00D3002070BDC25C002A45
:101A7000ECD06B2A01D04B2A05D1002B03D0A00259
:101A800008E00120EEE76D2A01D04D2A04D1002B99
:101A900002D020050860F4E71546303D092D07D82F
:101AA0000A256C43303C14195B1C0B2BDED3DBE79F
:101AB0000020D7E710B50D480124C31DF93311E00C
:101AC000417801290DD14268002A0AD08168002995
:101AD00002D0491E816004E0C4708178012900D1E0
:101AE000826010309842EBD310BD00001405002036
:101AF00010B5FFF7DFFF10BD10B5144801680122D3
:101B0000114301604168124A114041600168114A65
:101B10001140016001680122920491430160416813
:101B20003F22120491434160C16A09090901C1625F
:101B3000016BFF22543291430163416B4908490014
:101B4000416300218160FFF701FF10BD00100240DA
:101B50000CB8FFF8FFFFF6FE70B5184D184C29467B
:101B6000204600F06AF8002809D02946204600F0F7
:101B70002DF8204600F0D8F8C0B2FFF7C5FD114D92
:101B80002046294600F059F8002805D0294620466D
:101B900000F01CF8FFF7D4FD0821204600F046F8BD
:101BA00000280AD0204600F0BFF80821204600F0A7
:101BB0000DF80821204600F007F870BD050105006A
:101BC000003801400601060001627047090C01223D
:101BD0008A40026270470029016802D00122114345
:101BE00001E0490849000160704700000D4910B547
:101BF000884209D101218C032046FFF779FC00219E
:101C00002046FFF775FC10BD07498842FBD1012132
:101C10004C042046FFF754FC00212046FFF750FCFF
:101C200010BD000000380140004400400246D26967
:101C300000200A4200D00120704730B50A04130E7C
:101C400001252A4600248A40012B0ED0022B0ED0FB
:101C50008368090C1340C0698D402840002B02D0D6
:101C6000002800D00124204630BD0368F1E7436816
:101C7000EFE710B50B041C0E01238B40022C02D0A1
:101C8000032C02D002E0001D00E008300168002AA9
:101C900001D0194300E09943016010BD30B50446FE
:101CA000006887B00D46400840002060606803214E
:101CB00009038843A9680143616020681749EA68FD
:101CC0000840696811432A69024311432160A068F2
:101CD00003210902884369690143A1606846FFF74F
:101CE00013FC0F48844201D1069800E00298216855
:101CF0000904296800D54000FEF7FAF92A6852085D
:101D00008A4200D8401C2168090404D50107054A0D
:101D1000490F10400843A08107B030BDF3E9FFFF31
:101D200000380140F0FF0000808CC005C00D7047F6
:101D3000C905C90D01857047074AFF3101314000CF
:101D40004900CB0500D5401CC30300D55040CB0350
:101D5000F5D580B270470000211000007CB5012449
:101D6000E402012069460094087100228A714A71D8
:101D7000044DC8712846FEF74DFE21462846FEF761
:101D800093FE7CBD00040048012110B5C902064A3B
:101D9000002805D0012802D11046FEF785FE10BDAF
:101DA0001046FEF77FFE10BD00040048F8B54F4C0A
:101DB0000020A0603C204F4EE0604D483546853500
:101DC0002061A06800280DD0012854D00228F8D145
:101DD000464948481C318530FFF746FDA061002880
:101DE0007CD051E0414943481C318530FFF73CFD30
:101DF000A061002848D16878002847D1E269802A8C
:101E000044D1E91C3B48FEF789F900206061315C50
:101E1000002909D0401C60618028F8DB06E0315CB5
:101E2000002903D1401C60618028F8DB2F49274638
:101E300030182031FFF7E6FD2F49386A884208D96B
:101E40001820FFF772FD1820FFF76FFD0020C04338
:101E5000F8BD2748FEF7C6FC0620FFF766FDB86808
:101E6000401CB860ADE7401CABD1E0680028EFD063
:101E7000401EE060A5E71D491E481C318530FFF774
:101E8000F3FCA061002804D00128ECD10220C0435B
:101E9000F8BDE269002A11D068780028F6D0E91C64
:101EA0002069FEF760FD012810D01820FFF73DFDE6
:101EB0001820FFF73AFD0120C043F8BD0620FFF7C8
:101EC00034FDA068401CA0607BE707E00620FFF718
:101ED0002CFDE16920694018206172E768780028CC
:101EE000D4D10620FFF721FD206AF8BD2000002094
:101EF000003000088800002002B800000FB410B5C0
:101F000003A9044B044A029800F0E8F810BC08BC8E
:101F100004B0184715280008600000202021020C9A
:101F200001D010211046020A01D0104608390209DA
:101F300001D01046091F820801D01046891E4208B0
:101F400001D0881E7047081A704702E008C8121FA7
:101F500008C1002AFAD170477047002001E001C192
:101F6000121F002AFBD17047F0B51FB486B0099844
:101F7000089A030D0021024314D05148514A181801
:101F8000504305141198012810981AD0281A401CA3
:101F900000264D4F4D49009601910490002812DA19
:101FA000444211E01198012449A3012801D110985D
:101FB000C1430698119A84600360C26041600BB00F
:101FC000F0BD4042E4E70446210500203F4A001CE2
:101FD00051410391029012E0E00707D032463B46A0
:101FE00001990098FEF7A0F90191009032463B4616
:101FF00010461946FEF798F906460F466410002C65
:10200000EAD10498039B0028029A0999089806DAF5
:10201000FEF78AF9019B009AFEF786F905E0FEF7C4
:10202000EBF9019B009AFEF7E7F904460E46002201
:10203000284BFEF779FA03D80020C043014607E099
:102040000022254B20463146FEF7BCF8FEF74CFA3D
:10205000102409E0002C0ADB0A220023FEF782F894
:10206000079B30321A55641E02460A43F2D11122F0
:10207000641C079B121B1C19119B012B03D001230D
:1020800008430ED10AE0084304D01120109000202C
:10209000119077E71098151A6D1E0BE01098824288
:1020A00002DD00236D1C03E0824201DA00236D1E75
:1020B000002BEED0069811998260C16030C07EE797
:1020C00001FCFFFF104D0000000014400000F03F35
:1020D000300000000000F0430000E03FFFB597B083
:1020E0000646002518E2252877D100242746FD4919
:1020F000049400E00443761C32780120203A90409A
:102100000842F7D130782A280ED0022230780146D2
:102110003039092916D804990A235943303940180F
:102120001443761C0490F1E7189802C804911890A3
:10213000002904DA012040030443484204900220AD
:102140000443761C30782E2814D104200443707880
:10215000761C2A2809D11898761C80C8189009E0A6
:102160000A214F43303FC719761C30780146303979
:102170000929F5D930786C2810D006DC4C281AD003
:1021800068280ED06A2817D104E0742813D07A2862
:1021900012D110E00120400504430CE001210905A3
:1021A00001E0032109050C437178814203D101202C
:1021B00000052418761C761C3078119066280BD008
:1021C00013DC58287DD009DC00287BD04528F6D0C8
:1021D0004628F4D047281AD1A5E118E0632835D065
:1021E000642870D0652812D19DE170286CD008DC7D
:1021F0006728F1D069287BD06E280DD06F2806D1D2
:10220000BAE073282ED0752871D0782859D01A9A40
:10221000199990476D1C7EE16002400F022809D099
:1022200003280DD00428189801680DD00D60001DFA
:10223000189070E11898EA1701680D604A60F6E797
:10224000189801680D80F2E70D70F0E718986A465B
:1022500001781172001D18900020507202A80090A1
:10226000012005E0189802C8189000200091C04392
:1022700061070DD5002101E00199491C0191B94286
:1022800012DA8142F8DB009A515C0029F4D10BE0AC
:10229000002101E00199491C01918142FADB019A78
:1022A0000099895C0029F5D1019904981A9B471A75
:1022B00021463846199A00F097FA019940194518B5
:1022C0000BE04FE02CE113E04EE00098009900781D
:1022D000491C00911A9A199990470198401E019043
:1022E000401CF2D1214638461A9B199A10E137E07A
:1022F0000A200021009001916002410F022907D0BD
:10230000189A01CA1892C2179446032908D00AE005
:102310001898C01DC108C90005C91891944607E066
:1023200000B2C2179446042902D140B2C1178C46AC
:1023300000226146944506DA0A4600214042914156
:102340008C462D2102E0210504D52B216A4611730C
:10235000012103E0E10701D02021F7E7029155E0D8
:102360000A200AE0102008E010200090002104203C
:1023700004430191082703E0082000210191009007
:102380006002410F022907D0189A01CA1892002250
:102390009446032908D008E01898C01DC108C90058
:1023A00005C91891944603E080B2042900D1C0B257
:1023B00000210291210729D51199702906D0009A90
:1023C0001021019B4A401A4305D00EE040216A4685
:1023D0001173012108E06146014306D030216A46AD
:1023E00011731199517302210291009A0821019BE6
:1023F0004A401A430AD16146014301D1610705D51C
:1024000030216A46117301217F1E029111995829CA
:1024100004D035A10E910DA90D910DE037A1F9E77A
:102420006146019B009AFDF79DFE0E9B8C469B5CCE
:102430000D9A521E0D92137061460143F0D10D9812
:1024400005A9081A20300190600703D50120000477
:10245000844300E001270198874201DD381A00E03B
:102460000020019900904118029809180498401A18
:102470000490E00306D421461A9B199A049800F0B0
:10248000B3F94519002706E003A81A9AC05D199907
:1024900090476D1C7F1C02988742F5DBE0030CD54A
:1024A00021461A9B199A049800F09EF9451904E0F8
:1024B0001A9A3020199990476D1C0099481E009077
:1024C0000029F5DC08E00D980D990078491C0D9164
:1024D0001A9A199990476D1C0199481E019000297C
:1024E000F1DC63E10928010030313233343536370D
:1024F0003839616263646566000000003031323350
:1025000034353637383941424344454600000000EF
:1025100000F05AF94519761C3078002800D0E2E521
:1025200028461BB0F0BD600700D406271898C01DD0
:10253000C108C90048680A680831C30FDB07189151
:10254000190001D09CA108E0210501D59BA104E060
:10255000E10701D09AA100E09AA1430011985B081D
:10256000109165280CD006DC452809D046281DD0DE
:10257000472841D141E0662818D067283CD13CE08B
:102580000021112F01DB112000E0781C0191009047
:1025900008A911A8FFF7E8FC139905910021119AE9
:1025A00015927F1C12980197009150E00120C007FE
:1025B00003900120019008A9009711A8FFF7D4FC0F
:1025C000139A149905920022119B00921298159368
:1025D000059A0192002901D0104602E0791C4018AA
:1025E0000190381A01D5019804E04042401E009045
:1025F000781C0190C01B029043E0012F00DA0127F4
:102600000021112F01DD112000E0384601910090DA
:1026100008A911A8FFF7A8FC13990591119A0021A8
:10262000129815920091019721070CD40599B9428F
:1026300001DB019900E00191012904DD159A491E91
:10264000515C302906D0B84201DA011D05DA0121BA
:10265000029115E00199491EEDE7002805DC00997B
:10266000411800910199091A03E0019A411C914215
:1026700000DD01910099401A401C02900120C00722
:102680000390200706D402990198814202DB0020C2
:10269000C043029000206946C87707AF0121039824
:1026A0000337C907884224D0022011902B201290B2
:1026B000039800280CDA404203902D20129007E086
:1026C0000A210398FDF714FD30317F1E0390397005
:1026D0001199481E11900029F2DC03980028EFD1CF
:1026E000791E129808703078202108404530BF1EAE
:1026F000387006A8C01BC01D0390109800780028F1
:1027000000D00120019941180298C01709180398B8
:1027100009180498401A401E0490E00306D421468C
:102720001A9B199A049800F05FF8451910980078E0
:10273000002803D01A9A199990476D1CE00324D5FC
:1027400021461A9B199A049800F04EF845191CE08E
:102750000098002807DB00990598884203DD15984A
:10276000405C199901E0199930201A9A9047009815
:102770006D1C401C00900298401E0290002804D15D
:102780001A9A2E20199990476D1C0199481E0190A4
:102790000029DDDC05E038781A9A7F1C19999047EA
:1027A0006D1C0399481E03900029F4DC21461A9BF6
:1027B000199A0498ACE600002D0000002B000000E0
:1027C0002000000000000000F8B5044600251E4669
:1027D0001746880404D405E039462020B0476D1C14
:1027E000641EF9D52846F8BDFFB50446002581B022
:1027F0001E46C80301D5302700E02027880404D5F1
:1028000005E038460399B0476D1C641EF9D528468B
:1028100005B0F0BD38B5044668460470012168462D
:10282000FEF7CEFF0028F9D0204638BD08B50024B9
:10283000354D6420FDF792FFFEF77EFDFEF7D0FDDB
:102840004B2000220821C001FEF7E2FE6420FDF7C4
:1028500085FF2F4E2D4830602AE001216846FEF7A3
:102860008DFF012824D1684600784006400E2028BC
:102870001ED17068401C706070680A2818D900204A
:10288000FFF782FA23A0FFF739FB0EE0012168462B
:102890006D1EFEF773FF012807D1684600784006D9
:1028A000400E0D2801D1FEF71DFA002DEED103E0F8
:1028B0003068411E3160D0D2FDF70AFF012800D0F8
:1028C000FEE7FDF739FFFEF701FA1A4D1A4F2146D0
:1028D000641C1AA0FFF712FB0020FFF755FA3560C1
:1028E00002E03068401E306030680028F9D10120D5
:1028F000FFF74AFA376002E03068401E3060306807
:102900000028E4D0F8E70000C0C62D0080380100A0
:1029100018000020506C65617365207072657373D8
:10292000207468652072657475726E206B65792EEF
:102930000D0A0000A086010040420F002A2A2A202A
:1029400041505020457272202A2A2A2020202564D6
:102950000D0A000000000000000000004131323389
:1029600034353600000000002E2E2E616E6420618A
:102970002053797374656D2052657365742077698F
:102980006C6C2062652067656E6572617465642099
:10299000746F2072656C6F616420746865206E6569
:1029A00077206F7074696F6E2062797465730D0A99
:1029B000000000000A0A0D2050726F6772616D6D91
:1029C000696E6720436F6D706C6574656420537524
:1029D000636365737366756C6C79210A0D2D2D2DFB
:1029E0002D2D2D2D2D2D2D2D2D2D2D2D2D2D2D2D17
:1029F0002D2D2D2D2D2D2D2D2D2D2D2D2D0000008E
:102A0000202A000800000020640000004A1F00087F
:102A1000842A000864000020B40B00005A1F00083C
:102A20000000000001020304010203040607080974
:102A30000000000001000000000000000000000095
:102A40000000000000000000000000000000000086
:102A50000000000000000000000000000000000076
:102A60000000000000000000000000000000000066
:102A70000000000000000000000000000000000056
:042A80000000000052
:04000005080000C12E
:00000001FF
